:020000040800F2
:1000000038060020010100080B310008412C0008CF
:1000100009310008210F00084137000800000000E6
:100020000000000000000000000000009F320008F7
:10003000230F0008000000009D320008A1320008D4
:100040001B0100081B0100081B0100081B01000820
:100050001B0100081B010008250F0008590F0008AC
:100060001B0100081B0100081B0100081B01000800
:100070001B0100081B0100081B0100081B010008F0
:100080001B0100081B0100081B0100081B010008E0
:100090001B0100081B0100081B0100081B010008D0
:1000A0001B0100081B0100081B0100081B010008C0
:1000B000113300081D3300081B0100081B01000854
:1000C0001B0100081B0100081B0100081B010008A0
:1000D0001B010008353700081B0100081B01000840
:1000E0001B0100081B0100081B010008DFF80CD0F1
:1000F00000F0F6FC00480047913A0008380600205E
:100100000648804706480047FEE7FEE7FEE7FEE7B1
:10011000FEE7FEE7FEE7FEE7FEE7FEE70D33000839
:10012000ED000008202A04DB203A21FA02F0002129
:10013000704721FA02F3D040C2F1200291400843F7
:1001400019467047D2B201E000F8012B491EFBD2DC
:1001500070470022F6E710B513460A4604461946D2
:10016000FFF7F0FF204610BD421C10F8011B0029CC
:10017000FBD1801A7047000070B50F4D00B9286898
:10018000002412E00A4602E09E4203D0521C13787B
:10019000002BF9D1DAB2224305D02BB124B10021D2
:1001A00000F8011B04E00446401C0678002EE9D14B
:1001B0002860204670BD0000980000200FB400B5F4
:1001C0008DB010A909900B9000914FF0FF300A906C
:1001D00000200C9005480690054807906A4609A83B
:1001E0000F9900F0BBFB0DB05DF814FB7909000816
:1001F000970900082DE9FF5F1D464FF0FF3BD5E949
:10020000014691465F464FF00008A9697F1C01989E
:100210008847296A824688470028F6D1BAF1FF3F0D
:100220000CD024F4C064002E19DD600614D5BAF198
:100230002B0F09D0BAF12D0F0ED103E0584604B0B0
:10024000BDE8F09F44F48064A9697F1C0198884749
:10025000761E8246002E02DDBAF1300F03D0B9F1CE
:10026000000F26D032E0A969761E44F400747F1C8A
:10027000019888478246002E05DDBAF1780F06D036
:10028000BAF1580F03D0B9F1000F10D01EE0B9F148
:10029000000F02D0B9F1100F18D1A969761E24F40D
:1002A00000747F1C019888478246102002E00820D5
:1002B00000E00A20814609E008FB0908A969761ECA
:1002C00044F400747F1C019888478246002E05DDA7
:1002D0004946504600F02DFB0028EDDAE969019807
:1002E0008847A00502D46FF00100A8E7E00725D1F8
:1002F000600613D5600502D5C8F1000000E0404655
:1003000029680A1D2A600968220501D5087015E0D0
:10031000220701D5088011E008600FE02868011D60
:1003200029600068210502D580F8008006E02107D9
:1003300002D5A0F8008001E0C0F8008038467EE7D2
:10034000F0B480EA0102D40F4200B2EB410F02D2B6
:100350000246084611464A0042D0C30DDDB2C1F341
:10036000C752AD1A202D35DAC1F3160141F400024F
:1003700004B15242C5F1200602FA06F12A411044A6
:10038000B3EBD05F23D0C4B1012DA0EBC35009DC87
:10039000F0BC4FF0004202EAC352DBB200F50000AD
:1003A00000F013BB400000F1807000EBC350A0F1DF
:1003B000807040EAD170490009E0490841EAC07103
:1003C000A0EBC35000F50000400800EBC350F0BCA8
:1003D00000F0F2BA6142012202EB4101001BF6E794
:1003E000F0BC704781F00041AAE780F00040A7E729
:1003F00080EA010210B502F00043400022D04A001A
:100400001FD0010E01EB1261C0F35600C2F3560279
:1004100040F4000042F40002A0FB022000047F39F7
:10042000140400D0401C50EA124001D44000491E80
:10043000C2B20C0604EBD010401C4008802A02D047
:1004400003E0002010BD20F00100002900DA0020A8
:10045000184310BD2DE9FE4F804681EA0300C00F0E
:100460000C46009021F0004123F00045B8EB02005B
:10047000A94105D24046214690461C460B460246FD
:1004800023F00040104347D0270DC7F30A00C3F301
:100490000A510290401A019040286BDAC3F313000E
:1004A00040F4801B0098924620B10023D2EB030A4F
:1004B00063EB0B0B01985946C0F14002504600F027
:1004C00017FA06460D4650465946019A00F01FFAA3
:1004D00010EB08006141002487EA115284EAE773B7
:1004E0001A4340D0009A62B3019A012A4FEA075298
:1004F00015DC001B61EB02014FF0004202EA0752DB
:10050000CDE90042001C41F5801132462B4600F037
:1005100099FA03B0BDE8F08F40462146F9E7001B89
:1005200061EB0201001C41F5801300185B412018AB
:10053000A2F5001747EB030140EAD570B6196D41EB
:1005400011E06D084FEA360645EAC0754FEA0752DA
:10055000001B61EB0201001C41F5801149084FEAC4
:1005600030000019514132462B4603B0BDE8F04F30
:1005700000F059BA0098012240000023D0EB02029B
:1005800063EBE073009821464FEAE074B8EB00009B
:1005900061EB0401E9E783F000435BE781F0004190
:1005A00058E72DE9FE4F81EA030404F0004421F0EE
:1005B000004100944FF0000B23F0004350EA010487
:1005C0005ED052EA03045BD0C3F30A54C1F30A5568
:1005D0002C44A4F2F3340194A0FB0254C1F31301A0
:1005E00041F48011C3F3130343F4801301FB02446D
:1005F00000FB034E840A970A44EA815447EA835772
:10060000A4FB076802958D0A05FB07854FEA932C2A
:1006100004FB0C542705029D4FEA065847EA16379B
:10062000B5EB08056EEB070C870E920E47EA8117B3
:1006300042EA8312A7FB0201B6EB0B0164EB000454
:100640002B0D43EA0C335E1844EB1C50DA4651463E
:10065000E7FB0201C5F313044FEA0B3343EA1453DB
:100660004FEA0432019C43EA0603A4F10C0402940D
:10067000009CCDE900B400F0E5F903B0BDE8F08FCF
:1006800000200146F9E72DE9F04D81EA030404F06A
:10069000004B21F0004514464FF0000A23F00041C2
:1006A00050EA050220D054EA01021DD0C5F30A57D2
:1006B0000246C5F31303C1F31300C1F30A5640F415
:1006C000801543F48013A7EB0608101BD64608F2EA
:1006D000FD3873EB050002D308F1010801E0921820
:1006E0005B41B8F1000F03DA00200146BDE8F08D50
:1006F00000204FF48011064684460EE0171B73EB72
:10070000050705D3121B63EB050306434CEA010CF6
:1007100049084FEA300092185B4150EA0107EDD1D9
:1007200052EA030012D082EA040083EA050108437A
:1007300005D0101BAB4106D20122002306E00022A7
:100740004FF0004302E06FF0010253101AEB060075
:100750004CEB085110EB0A0041EB0B01BDE8F04DEA
:1007600000F061B970B521F0004303430CD0C1F330
:100770000A550024D5EB040564EB0403D617AD1A23
:10078000B34102DB0020014670BD201841EB02514D
:1007900070BDC10F80EAE0700844CA0796230021AB
:1007A00000F013B90EB5C10F80EAE0700844CA0723
:1007B000002140F233438DE80E000A460B4600F05C
:1007C00041F903B000BD70B5C1F30A5201F0004514
:1007D0000024C1F3130140F2FF3341F480119A4227
:1007E00001DA002070BD40F233439A42A2F2334254
:1007F00003DC5242FFF796FC00E090402C43F1D01E
:10080000404270BD00F0004230F000400AD0C10DFF
:1008100001F56071C0F3160042EA0151C2084007B9
:1008200011437047002001467047000030B5041E98
:1008300071F1000404DB4FF00044404264EB01011D
:10084000141E73F1000405DB1C464FF000435242B6
:1008500063EB04038B4208BF824230BD30B5041EF7
:1008600071F1000404DB4FF00044404264EB0101ED
:10087000141E73F1000405DB1C464FF00043524286
:1008800063EB0403994208BF904230BD01F000437E
:1008900030B421F0004150EA010206D00A0DA2F561
:1008A0006072C1F31301002A02DC30BC00207047E3
:1008B000440F44EAC104C100E01830BC00EBC25050
:1008C00000F07AB830B50B46014600202022012402
:1008D00009E021FA02F59D4205D303FA02F5491B0E
:1008E00004FA02F52844151EA2F10102F1DC30BD24
:1008F000202A04DB203A00FA02F1002070479140E0
:10090000C2F1200320FA03F3194390407047202AD4
:1009100006DBCB17203A41FA02F043EAE07306E027
:1009200041FA02F3D040C2F1200291400843194637
:1009300070473A2800D2303820F02002412A01D3F3
:10094000A2F13700884201D34FF0FF30704700001A
:10095000026811441378016018467047D160044959
:1009600051610449116200211161114600F0D0B8B3
:1009700051090008050B0008426842B1016811F8EE
:10098000013B23B1521EC0E90012184670470121F5
:10099000C160881E704742685AB1C368016843B994
:1009A00083688B4205D0491E521CC0E9001200200A
:1009B00070474FF0FF3070470029A8BF7047401CB8
:1009C000490008BF20F00100704710B4B0FA80FC65
:1009D00000FA0CF050EA010404BF10BC704749B1A2
:1009E000CCF1200421FA04F411FA0CF118BF012112
:1009F00021430843A3EB0C01CB1D4FEA00614FEAF2
:100A0000102042BF002010BC704700EBC3501044C0
:100A10000029A4BF10BC7047401C490008BF20F04B
:100A2000010010BC704710B5141E73F1000408DA01
:100A3000401C41F1000192185B411A4301D120F0A2
:100A4000010010BD2DE9F04D92469B4611B1B1FA5F
:100A500081F202E0B0FA80F220329046FFF748FFC0
:100A600004460F4640EA0A0041EA0B0153465A4643
:100A7000084313D0114653EA010019D0C8F14002CF
:100A80005046FFF74FFB05460E4650465946424634
:100A9000FFF72EFF084305D0012004E02046394629
:100AA000BDE8F08D0020054346EAE0762C4337434D
:100AB0000A986305E40AA0EB08000022FD0A44EA54
:100AC00047540A3002D500200146E9E70105101914
:100AD0006941DDE9084500196941BDE8F04DA2E72B
:100AE000064C074D06E0E06840F0010394E807007B
:100AF00098471034AC42F6D3FFF7FCFAB03C00083C
:100B0000D03C0008C0B24FF4F05100F097B900009B
:100B10002DE9F34F8BB04FF0000801F10C000C46AB
:100B20004FF0010B46460DF1080A01906269012160
:100B300001989047051E2DD0252D2CD0216A88477D
:100B4000C0B16269012101989047216A8847002855
:100B5000F7D1411E62690198904700E0761CA169B7
:100B60000B988847216A88470028F7D1E1690B98DC
:100B70008847DBE7A1690B9888470746A84201D15F
:100B8000761CD3E7E1690B9888477F1C02D1B8F146
:100B9000000F6FD046E1002762693D463946019853
:100BA00090472A2804D162690121019890470125C4
:100BB000DFF884926269012101989047A0F1300129
:100BC0000A290AD24F45E5DC07EB870100EB410714
:100BD000303FDFD445F01005ECE7E90601D46FF0B3
:100BE00000476C280AD04C2814D0682815D06A28F1
:100BF0000DD074281CD07A281AD01DE0626901211A
:100C0000019890476C2802D045F0040514E045F0A7
:100C100002050DE045F020050AE062690121019816
:100C20009047682802D045F0080505E045F40065C6
:100C30006269012101989047C4E9015765283DD0B8
:100C400019DC58287AD00CDC452837D004DC25285C
:100C500026D0412831D131E046282FD047282CD149
:100C60002CE05B2877D0612828D063287CD06428CA
:100C700023D15AE0D0E06F2848D008DC66281DD088
:100C800067281BD0692821D06E2816D127E070284C
:100C900045D0732868D0752847D078280DD14DE00D
:100CA000A1690B988847054625283FF469AFE1699B
:100CB0000B9888476D1C3FF46AAFB3E023466A4641
:100CC0006FF001000B99AFF300809EE045F040000B
:100CD0006060A80723464FF0000236D43EE0E807E4
:100CE0007FF447AF2068011D21600068290501D508
:100CF00006701BE7290701D5068017E7A90703D56A
:100D0000F117C0E9006111E706600FE745F0400008
:100D10006060A80723464FF0080216D41EE040F694
:100D20000E0125EA0100606016E045F040006060B9
:100D3000A80723464FF00A0207D40FE045F0400011
:100D40006060A80708D5234610226FF001000B99B8
:100D5000AFF3008059E007E0234610226FF0010056
:100D60000B99FFF747FA50E04FF000094F464B460A
:100D7000632802D05B2806D040E0E80601D40120B9
:100D8000A06001273AE062690121019890475E283E
:100D900005D14FF0010962694946019890472169E0
:100DA00039B900210A46534643F82120491C082935
:100DB000FADBB0B3216969B9C11700EBD1625311F5
:100DC0000AEB830122F01F02821A01200B68904077
:100DD00003430B6062690121019890475D28E8D1C7
:100DE000B9F1000F09D00020514651F82020D2431C
:100DF00041F82020401C0828F7DB02AB2246009770
:100E00006FF001000B99AFF3008000280CDA401C52
:100E100008D1BBF1000F05D04FF0FF300DB0BDE899
:100E2000F08FFFE74046F9E7E90701D108F1010833
:100E300006444FF0000B79E6CCCCCC0C7F2801D9CE
:100E4000002208E0064A02EB5002C007127800D1E7
:100E5000120902F00F020120904008407047000084
:100E6000703C000870B5044600688168C943C90732
:100E70001CD1816821F00101816000F00FFC054662
:100E80000FE000BF00F00AFC401B022809D9A06A4D
:100E900040F01000A062E06A40F00100E062012032
:100EA00070BD20688068C043C007EBD0002070BDD3
:100EB000F8B500260446009600688168C943C90752
:100EC00028D0816841F0010181601348134900680E
:100ED000B0FBF1F000E0401E00900028FBD100F0D4
:100EE000DDFB054611E000BF00F0D8FB401B0228E7
:100EF0000BD9A06A40F01000A062E06A40F0010047
:100F0000E06284F824600120F8BD20688068C04356
:100F1000C007E9D10020F8BD9400002040420F0036
:100F2000FEE7704710B5012000F0B6FA022107482D
:100F300000F0AEFB0649012806D04E200870054897
:100F40000168491C016010BD5420F7E7000801400A
:100F5000080000200C00002010B5022000F09CFAD0
:100F600002480168491C016010BD0000000000201B
:100F7000F8B50024009490F824202546012A12D0C8
:100F8000012280F824204A681F23072A0DD2066810
:100F9000776B521E02EB820293409F430B68934093
:100FA0001F43776319E00220F8BD06680D2A0AD2B4
:100FB000376BD21F02EB820293409F430B68934032
:100FC0001F43376309E0F76A0D3A02EB8202934050
:100FD0009F430B6893401F43F7620A680723066824
:100FE0000A2A0AD3F7680A3A02EB420293409F4367
:100FF0008B6893401F43F76008E0376902EB4202B9
:1010000093409F438B6893401F4337610A68102ABF
:1010100001D0112A20D1124B02689A4217D193684D
:101020001B0219D4936843F40003936009681029E4
:1010300012D10C490C4A0968B1FBF2F101EB8101B4
:10104000490000E0491E00910029FBD104E0816ABB
:1010500041F020018162012480F824502046F8BD2F
:10106000002401409400002040420F000068C06C42
:10107000704700002DE9F0414FF0000704003D46A5
:101080007ED0A06A002628B9E66284F82460204653
:1010900000F07EF82046FFF7E5FEA16AC90600D4FD
:1010A00020B1A06A40F01000A06269E0A16A21F4BA
:1010B000885141F00201A1626268E169237B0A4321
:1010C00047EA43010A43A1684FF48077B94209D047
:1010D000012907D05FF0000194F814C0BCF1010FA2
:1010E00002D00AE03946F7E7F3B1A36A43F02003E0
:1010F000A362E36A43F00103E3622368D3F804C008
:101100002CF4694C4CEA010CC3F804C021688B68CC
:10111000DFF870C003EA0C0313438B60A168B94287
:101120000BD0012909D00CE0DFF85CC0A3690CEBFF
:1011300043330B4343F40061DFE7218A0D05A5F536
:1011400080152168CB6A23F470032B43CB6221689E
:1011500089680E4B1940914208D1E662A16A21F0DC
:10116000020141F00101A162BDE8F081A06A20F016
:10117000020040F01000A062E06A40F00100E0626E
:101180000120F1E7FDF7E1FF00E0FFFFFE0E1FFF8A
:1011900000B585B000210091019102910391006892
:1011A0000E49884218D10E48816941F4007181616D
:1011B000816901F400710491816941F00401816148
:1011C0008069694600F00400049004200090032028
:1011D0000190044800F06CF905B000BD0024014006
:1011E00000100240000801402DE9F84300260D469A
:1011F0000446009600F052FA804620688168C905CE
:1012000008D5A06A40F02000A06284F82460012084
:10121000BDE8F8834168C90503D4C06A10F4700FB3
:1012200026D0022000F062FC38490968B1FBF0F7D3
:101230002068036936490B424FEA61014FEAA11267
:101240001BD1C3684FEA611C13EA0C0F15D1036967
:101250000B4221D1C06810421ED114201FE0681C2F
:1012600006D045B300F01AFAA0EB0800A84222D835
:10127000206800688007F2D52AE003690B4202D19A
:10128000C168114206D0026922490A4206D1C068EB
:10129000084203D1542002E0292000E0FC2047430B
:1012A000009813E0681C0ED02DB100F0F7F9A0EB08
:1012B0000800A84207D9A06A40F00400A06284F8A0
:1012C00024600320A4E70098401C0090B842E9D3B2
:1012D00021686FF012000860A06A40F40070A062FC
:1012E00020688068C0F3424007280CD1207B50B9A9
:1012F000A06A20F48070A062A06AC00403D4A06A2F
:1013000040F00100A062002082E70000940000206D
:10131000244992244992240070B5044690F8240090
:1013200001280DD0012084F824002046FFF7C0FDDD
:1013300002004FF0000005D084F82400104670BD74
:10134000022070BDA16A40F20123994341F48071EB
:10135000A1621F4D23681F49AB4218D10E6816F4D5
:10136000702F14D0A66A46F48016A6620E68760521
:1013700005D5A66A26F4005646F48056A662A66AEB
:10138000F6040AD5E66A26F00606E66206E0A66AD4
:1013900026F48016A6625E68E9E7E06284F824001D
:1013A0006FF00200186020688368C3F34243072B84
:1013B00005D1A84208D1096811F4702F04D08168C2
:1013C00041F480118160B9E7816841F4A001F9E737
:1013D000002801400424014010B590F82110002499
:1013E000022903D00421816301243DE001680A68D9
:1013F00022F00E020A6001680A6822F001020A6007
:101400001A4A0168914201D1012121E0174A1432A0
:10141000914201D110211BE0144A2832914201D19E
:10142000891515E0114A3C32914201D189140FE02F
:101430000E4A5032914202D14FF4803108E00B4AFB
:101440006432914202D14FF4801101E04FF080717B
:10145000064A083A5160012180F82110002180F8E5
:101460002010416B01B18847204610BD08000240A2
:1014700070B5044600F012F90546601C02D004481D
:101480000078044400F00AF9401BA042FAD370BD72
:101490008800002070470000044910B50A68024225
:1014A00002D00860FFF7F6FF10BD000014040140F1
:1014B0002DE9F84FDFF8B891002409F1040A0AF188
:1014C000040B23460F270BF1040EC9E00125A540AC
:1014D0002A40AA427DD1674ED1F804C0ACEB060881
:1014E000B44532D014DCBCF1030F3AD009DCBCF1B6
:1014F000000F2AD0BCF1010F1CD0BCF1020F31D17A
:101500001DE0BCF1110F17D0BCF1120F2AD119E068
:10151000B8F5881F19D006DCB8F5803F15D0B8F5AE
:10152000801F1FD111E0B8F5001F0ED0B8F5041FC1
:1015300018D10AE0CB6815E0CB681B1D12E0CB6820
:1015400008330FE0CB680C330CE08B682BB1012B18
:101550004FF0080303D0456104E0042302E0056175
:1015600000E00023FF2A01D8064601E000F104064E
:101570004FEA840501D9A5F12005D6F8008007FAC5
:1015800005FC28EA0C0803FA05F548EA0508C6F840
:1015900000804D68ED0062D5374DAE6946F001061A
:1015A000AE61AD6924F0030605F001050095334DE9
:1015B00006EB050CDCF80850A607360F07FA06F80C
:1015C00025EA0805DFF8B880404503D14FF0000850
:1015D00017E044E0DFF8AC80404502D14FF001084D
:1015E0000FE0DFF8A480404502D14FF0020808E088
:1015F000DFF89880404502D14FF0030801E04FF03A
:10160000040808FA06F848EA0508CCF808804D688E
:10161000D9F80060ED034D4601D5164300E096432E
:101620002E604D68DAF80060AD03554601D51643CB
:1016300000E096432E604D68DBF80060ED025D46E9
:1016400001D5164300E096432E604D68DEF8006039
:10165000AD02754601D5164300E096432E60641C2A
:101660000D682A46E5407FF431AFBDE8F88F0000F1
:101670000004014000001110001002400000014071
:1016800000080140000C014000100140001401401E
:101690008068084000D00120704700000148806841
:1016A000704700008800002070B5040025D094F831
:1016B0003D00002520B984F83C50204600F04EF94A
:1016C000242084F83D002068016821F001010160B8
:1016D0002068016841F4004101602068016821F43C
:1016E0000041016000F072FB4D4A6168914201D8EF
:1016F0004C4900E04C49884201D2012070BD4B4961
:101700002368B0FBF1F15E6826F03F060E435E6091
:101710006368934206D94FF4967359434FF47A7332
:10172000B1FBF3F12368491C1E6A26F03F063143E2
:1017300019626168914210D84900401EB0FBF1F275
:10174000521CC2F30B02042A01D2042022E0B0FB97
:10175000F1F0401CC0F30B001CE0A268F2B301EBF7
:10176000C10303EB0116431EB3FBF6F35B1C43F40A
:1017700080431B0549D092B301EBC10202EB01117A
:10178000401EB0FBF1F0401CC0F30B0040F4804061
:1017900040F400402168CA694CF6FF739A43104335
:1017A000C861D4E9071001432068026822F0C00232
:1017B00011430160D4E9030101432068826848F2C3
:1017C000FF339A4311438160D4E90501084321683E
:1017D000CA6822F0FF021043C86001E00EE016E084
:1017E0002068016841F0010101602564202084F82F
:1017F0003D00256384F83E50002070BD01EB41069A
:10180000431EB3FBF6F35B1CB3E70120C2E701EB19
:101810004101401EB0FBF1F0401CC0F30B00B7E7E4
:10182000A086010080841E0000093D0040420F0098
:101830002DE9F84F1F4690468A460446DDF8289069
:10184000FFF72CFF054694F83D0020287FD119238F
:10185000012240492046009501F07EFA002876D109
:1018600094F83C00012872D0012084F83C002068E4
:101870000168C90703D1016841F0010101602068D6
:10188000016821F400610160212084F83D001020EE
:1018900084F83E0000262664C4F824806785608DA5
:1018A00020852D48E0622B464A465146204601F0ED
:1018B000DFF990B9206841698069009036E02A46D6
:1018C0004946204601F0C7FA50B1206C042804D1E3
:1018D0002068016841F4007101600120BDE8F88FC3
:1018E000606A216800780861606A401C6062618DEE
:1018F000491E6185218D491E89B22185226853695F
:10190000DB435B070BD451B100781061606A401C67
:101910006062608D401E6085208D401E20852A46B5
:101920004946204601F0F2F90028CED1208D00284A
:10193000C5D154F83D0B016841F4007101602020CD
:1019400004F81E09E67766770020C7E7FFE7022064
:10195000C4E70000020010000000FFFF10B586B0D1
:10196000002100910191029103910068134988427E
:1019700022D1134CA06940F00800A061A06969461B
:1019800000F0080004904FF4407000901220019085
:10199000032003900B48FFF78BFD0B48416841F093
:1019A000E06141F002014160E06940F40010E06153
:1019B000E06900F40010049006B010BD005400402F
:1019C00000100240000C0140000001400248816804
:1019D000027811448160704788000020074810B5E4
:1019E000016841F010010160032000F06DF8002053
:1019F00000F006F800F024F8002010BD002002409E
:101A000070B50D4D04464FF47A712878B1FBF0F0B3
:101A10000A490968B1FBF0F000F0BEFB48B9102C90
:101A200007D200222146501E00F02EF800206C60E4
:101A300070BD012070BD00008800002094000020CF
:101A4000094808B5816941F001018161816901F0AE
:101A500001010091C16941F08051C161C06900F08C
:101A60008050009008BD000000100240002809DBF3
:101A700000F01F02012191404009800000F1E020A8
:101A8000C0F8001170470000F0B40E4B1B680C4604
:101A9000C3F30223C3F10705042D00D90425191D42
:101AA000072901D2002300E0DB1E012606FA05F11A
:101AB000491E214099409E40761E16403143F0BC9D
:101AC00001F054BE0CED00E0064900F00702086882
:101AD0004FF6FF03184040EA0220034A1043086013
:101AE000704700000CED00E00000FA0510B529A4D5
:101AF00001461DCC86B08DE81D002AA02A4C006846
:101B000004900020012923D002293AD010291DD1A8
:101B100061682268D20119D5C1F38342C9031DF857
:101B2000020009D5616804AAC1F34041515C1F4A13
:101B3000B2FBF1F1484301E01D49484361684902A5
:101B400004D440005FF00301B0FBF1F006B010BD1B
:101B5000226AC2F30121012903D1920701D5C803EA
:101B6000F4E7022905D1626A920702D549F640409E
:101B7000ECE70329EAD121688903E7D54FF2244035
:101B8000E4E700F033F96168C1F38131491C490091
:101B9000DAE7000002030405060708090A0B0C0D2A
:101BA0000E0F1010010200000010024000127A0017
:101BB00000093D002DE9F84305460078354CC00783
:101BC00054D0E0690026C00008D4E06940F080509D
:101BD000E061E069012600F0805000902E48016825
:101BE000C90512D40168804641F480710160FFF795
:101BF00055FD074605E000BFFFF750FDC01B6428F8
:101C000023D8D8F80000C005F6D5206A10F440703B
:101C100021D0A98801F4407181421CD0206A1F495B
:101C2000012220F440700A6000220A602062C0078E
:101C300011D0FFF733FD074641F2883808E000BFB6
:101C4000FFF72CFDC11B414502D90320BDE8F883F5
:101C5000206A8007F4D5206A696820F44070084340
:101C600020621EB1E06920F08050E0612878800792
:101C700005D56068A96820F4404008436060287872
:101C8000C00605D56068E96820F4800008436060FC
:101C90000020DBE700100240007000404004424298
:101CA0002DE9F0470F46050061D0434E306800F043
:101CB0000700B84209D2306820F00700384330608E
:101CC000306800F00700B84251D128683B4C8107CA
:101CD00012D5400703D5606840F4E0606060287862
:101CE000000703D5606840F4605060606068A968D0
:101CF00020F0F000084360602878C00728D06868AA
:101D0000012810D02168022810D0890700292EDA76
:101D1000616821F0030101436160FFF7BFFC804669
:101D200041F288390DE021688903EFE78901EDE789
:101D3000FFF7B4FCA0EB0801494502D90320BDE838
:101D4000F0876068696800F00C00B0EB810FEFD19C
:101D5000306800F00700B8420BD9306820F0070067
:101D600038433060306800F00700B84201D00120ED
:101D7000E5E72878400705D56068E96820F4E06069
:101D8000084360602878000706D56068296920F458
:101D9000605040EAC100606000F038F86168084AAD
:101DA000C1F30311515CC840064908600648006849
:101DB000FFF726FE0020C2E700200240001002408C
:101DC000583C0008940000208C000020044805497D
:101DD00000684968044AC1F30221515CC840704759
:101DE0009400002000100240683C000804480549A7
:101DF00000684968044AC1F3C221515CC840704779
:101E00009400002000100240683C000812A185B038
:101E10000FC98DE80F0014A0144A0068049051689F
:101E2000134801F00C03042B10D0082B0ED1C1F382
:101E30008343C9031DF803000AD5516804AAC1F3FE
:101E40004041515C0A4A5043B0FBF1F005B0704785
:101E500008494843FAE70000020304050607080999
:101E60000A0B0C0D0E0F10100102000000100240B2
:101E700000127A0000093D002DE9F84F040070D0EF
:101E80002078C04DC00749D06868C0F381000128A0
:101E900007D06868C0F38100022809D16868C003D0
:101EA00006D52868800339D560680028E7D035E07A
:101EB0006068B0F5803F0BD010B1B0F5A02F11D005
:101EC000286820F480302860286820F4802002E010
:101ED000286840F480302860606890B1FFF7DEFB2E
:101EE00006460AE0286840F480202860F0E700BF3A
:101EF000FFF7D4FB801B642873D828688003F7D5CC
:101F00000CE0FFF7CBFB064605E000BFFFF7C6FB82
:101F1000801B6428F0D828688003F7D420789A4E74
:101F200080074FF001094FF0000839D5686810F0BC
:101F30000C0F07D06868C0F38100022809D16868D7
:101F4000C00306D42868800714D52069012808D169
:101F500010E02069B0B1C6F80090FFF79FFB07467C
:101F600005E00AE1FFF79AFBC01B0228C4D82868E5
:101F70008007F7D52868616920F0F80040EAC100C1
:101F800028600DE0C6F80080FFF788FB074604E0F4
:101F9000FFF784FBC01B022823D828688007F7D4EA
:101FA000207800072CD57948A169D9B1C0F80090F4
:101FB000FFF774FB074604E0FFF770FBC01B022825
:101FC0000FD8686A8007F7D571484FF4FA51006856
:101FD000B0FBF1F0009000BF0098411E0091FAD2D2
:101FE0000EE080E0C0F80080FFF758FB074604E0F1
:101FF000FFF754FBC01B022875D8686A8007F7D426
:102000002078400760D5E8690027C00008D4E86957
:1020100040F08050E861E869012700F080500090AE
:102020005C480168C90513D40168834641F4807196
:102030000160FFF733FB824606E000BFFFF72EFB8F
:10204000A0EB0A0064284ED8DBF80000C005F5D5E7
:10205000E06801280AD008B1052813D0286A20F0CA
:1020600001002862286A20F0040002E0286A40F09B
:1020700001002862E06841F2883B98B1FFF70EFB4F
:1020800082460BE0286A40F004002862EEE700BFB9
:10209000FFF704FBA0EB0A0159455AD8286A8007CC
:1020A000F6D50CE0FFF7FAFA824605E0FFF7F6FAFC
:1020B000A0EB0A0159454CD8286A8007F6D41FB115
:1020C000E86920F08050E861E06988B36968C1F38D
:1020D0008101022944D00228C6F8608004D0FFF7AD
:1020E000DDFA044638E034E0FFF7D8FA074604E0AA
:1020F000FFF7D4FAC01B02282BD828688001F7D438
:10210000206AB0F5803F05D16868A16820F40030EE
:1021100008436860D4E908010843696821F4741130
:1021200008436860C6F86090FFF7B8FA044606E016
:1021300025E000BFFFF7B2FA001B022809D8286883
:102140008001F7D51BE000BFFFF7A8FA001B0228AB
:1021500002D90320BDE8F88F28688001F4D40EE08E
:102160000128F7D06868226A00F48031914204D1D6
:10217000616A00F47010884201D00120EAE7002073
:10218000E8E70000001002400000424280044242A2
:10219000940000200070004010B5401EB0F1807F18
:1021A00001D3012010BD4FF0E02460610F216017C2
:1021B00001F0DCFA0020A06107202061002010BDA2
:1021C0007047704710B590F83C20012A22D00122B8
:1021D00080F83C20CA688C6822F4407222434C6824
:1021E00022F4806222430C6822F4006222430C69CC
:1021F00022F4805222434C6922F400522243C969DE
:10220000002322F480420A4301684A6480F83C308B
:10221000002010BD022010BD70B590F83C20012AAE
:1022200026D0012480F83C40022280F83D2003683B
:102230005A689D6822F070060A6832435A600D4B56
:1022400002689A4208D0B2F1804F05D00A4B9A42F8
:1022500002D00A4B9A4204D1496825F08003194301
:10226000916080F83D40002180F83C10084670BD28
:10227000022070BD002C0140000400400008004016
:1022800010B5040003D094F83D0010B107E0012020
:1022900010BD002084F83C00204600F01FF802200A
:1022A00084F83D00211D206801F03EF8012084F8EB
:1022B000460084F83E0084F83F0084F8400084F82B
:1022C000410084F8420084F8430084F8440084F814
:1022D000450084F83D00002010BD000008B51A4AF2
:1022E00001681A48914208D1816941F40061816115
:1022F000806900F40060009008BDB1F1804F14D0F7
:10230000134A9142F8D1C16941F00201C161C0692B
:10231000002200F00200009001211D20FFF7B4FB15
:102320001D20BDE80840FFF7A1BBC16941F00101D4
:10233000C161C069002200F00100009001211C2051
:10234000FFF7A2FB1C20ECE7002C0140001002402C
:102350000004004090F83D10012901D00120704791
:10236000022180F83D1000680B49884208D0B0F186
:10237000804F05D00949884202D00949884204D1DA
:10238000816801F00701062903D0016841F00101CD
:102390000160002070470000002C01400004004054
:1023A0000008004090F83D10012901D0012070473D
:1023B000022180F83D100168CA6842F00102CA603B
:1023C00000680B49884208D0B0F1804F05D0094918
:1023D000884202D00849884204D1816801F007018F
:1023E000062903D0016841F0010101600020704717
:1023F000002C0140000400400008004070B5044675
:1024000090F83C00012817D0012584F83C500220A8
:1024100084F83D002068826822F0770222F47F422F
:1024200082600868502830D00DDC20284DD005DCB3
:1024300098B310283BD148E0022070BD302844D02A
:10244000402834D139E0602828D0702806D0B0F573
:10245000805F2CD0B0F5005F29D10AE0CB68D1E9CC
:102460000121206800F0A3FF2068816841F0770116
:1024700009E0CB68D1E90121206800F098FF2068CD
:10248000816841F48041816011E0CA684968206830
:1024900001F042F85021206807E016E0CA68496858
:1024A000206801F04AF86021206800F08AFF84F873
:1024B0003D50002084F83C0070BDCA68496820681F
:1024C00001F02AF840212068EFE722680146104613
:1024D000EBE7704770B50446006801694FF00005EE
:1024E000C943890715D4C168C943890711D4E91EB6
:1024F000016101202077206880698007204602D092
:10250000FFF7E7FF04E000F0BFF8204600F04EF9C7
:10251000257720680169C943490717D4C168C943B1
:10252000490713D46FF0040101610220207720686D
:10253000806910F4407F204602D0FFF7CAFF04E014
:1025400000F0A2F8204600F031F9257720680169F3
:10255000C943090716D4C168C943090712D46FF0EB
:1025600008010161042020772068C06980072046A7
:1025700002D0FFF7AEFF04E000F086F8204600F03E
:1025800015F9257720680169C943C90617D4C168C0
:10259000C943C90613D46FF01001016108202077E8
:1025A0002068C06910F4407F204602D0FFF791FFF9
:1025B00004E000F069F8204600F0F8F8257720687C
:1025C0000169C943C90708D1C168C943C90704D112
:1025D000891E0161204600F039F920680169C9436C
:1025E000090609D4C168C943090605D46FF0800102
:1025F00001612046FFF7E4FD20680169C9434906EF
:1026000009D4C168C943490605D46FF0400101618E
:10261000204600F022F920680169C94389060BD4DD
:10262000C168C943890607D46FF0200101612046C3
:10263000BDE87040FFF7C5BD70BD000000B585B0B6
:102640000021009101910291039100680B49884299
:1026500012D10B48816941F00401816180696946AA
:1026600000F0040004904FF44070009002200190AC
:1026700003900448FEF71CFF05B000BD002C01408C
:102680000010024000080140704770B5044690F801
:102690003C000D4601280AD0012084F83C0042B1DC
:1026A000042A18D0082A2AD00C2A4DD139E0022059
:1026B00070BD206800F08EFE2068816941F008013D
:1026C00081612068816921F004018161206881694C
:1026D0002A69114311E0206800F0A4FE2068816996
:1026E00041F4006181612068816921F48061816128
:1026F000206881692A6941EA0221816124E0206819
:1027000000F0BCFE2068C16941F00801C161206889
:10271000C16921F00401C1612068C1692A691143BE
:1027200011E0206800F0D6FE2068C16941F4006124
:10273000C1612068C16921F48061C1612068C169FB
:102740002A6941EA0221C161002084F83C0070BD81
:1027500010B5040003D094F83D0010B107E001204B
:1027600010BD002084F83C00204600F01EF8022036
:1027700084F83D00211D206800F0D6FD012084F87A
:10278000460084F83E0084F83F0084F8400084F856
:10279000410084F8420084F8430084F8440084F83F
:1027A000450084F83D00002010BD704770470000D0
:1027B00010B50446022249B104290ED0082913D0CD
:1027C00094F84100012816D0012010BD94F83E0075
:1027D0000128F9D184F83E200FE094F83F00012849
:1027E000F2D184F83F2008E094F840000128EBD1B2
:1027F00084F8402001E084F841200122206800F0A4
:10280000C9FD0F492068884203D1426C42F400425E
:1028100042642068884208D0B0F1804F05D0094951
:10282000884202D00849884204D1816801F007013A
:10283000062903D0016841F001010160002010BDAC
:10284000002C014000040040000800400068B0F186
:10285000804F01D100F05ABC7047704770470000AC
:1028600070B5026804461068D168536910F00F0F04
:1028700052D003F0010501F490762E435FD0C207D9
:1028800005D0CA0503D5E26B42F00102E2634207BC
:1028900005D5DA0703D0E26B42F00202E263820759
:1028A00005D5DA0703D0E26B42F00402E2630207C7
:1028B00007D501F020022A4303D0E26B42F0080260
:1028C000E263E26B002A33D0800604D5880602D585
:1028D000204600F05AFE20684069E16BC0F380108A
:1028E000090700D428B3204600F041FE2068416962
:1028F00049061AD5416921F040014161606BA0B1E0
:102900002D494163606BFEF767FD002810D0606BB6
:10291000416BBDE870400847830610D58B060ED585
:102920002046BDE8704000F030BE2046FFF796FF1D
:1029300070BD2046FFF792FF0020E06370BD0306E4
:102940002BD50B0629D594F839002128F6D1A0689B
:10295000B0F5805F01D12069B0B1206A411C2162CD
:10296000216800784860E08C401E0004000CE08480
:10297000E4D12068C16821F08001C1602068C1688D
:1029800041F04001C16070BD206A0088C0F30800BA
:102990005060206A801C2062E5E74006F3D54806B7
:1029A000F1D5D168204621F04001D160202184F882
:1029B000391000F044F970BD5F35000870B50400AF
:1029C00004D094F83900002510B106E0012070BD54
:1029D00084F83850204600F023F8242084F8390089
:1029E0002068C16821F40051C160204600F014FE47
:1029F0002068016921F4904101612068416921F05A
:102A00002A0141612068C16841F40051C160E56359
:102A1000202084F8390084F83A00002070BD0000BE
:102A200030B585B0002400940194029403940068AA
:102A30001B49884232D11B48816941F48041816140
:102A4000816901F480410491816941F0080181614B
:102A50008069154D00F0080004904020009002208D
:102A600001900320039069462846FEF721FD80204F
:102A7000CDE90004694628460294FEF719FD0B488B
:102A8000416841F0E06141F00401416000221146DB
:102A90002520FEF7F9FF2520FEF7E8FF05B030BD41
:102AA0000038014000100240000C014000000140CD
:102AB00090F83A30202B22D1F9B1F2B190F83830A9
:102AC000012B1CD081628285C2850021C163222234
:102AD00080F83A2080F838100168CA6842F48072A1
:102AE000CA6001684A6942F001024A610068C1682F
:102AF00041F02001C1600020704701207047022092
:102B00007047000010B51D4900680968884234D13B
:102B10001BA11C48FDF730FB002416E0641C012CAF
:102B200004D0022C05D0032C06D00AE0154A643AE2
:102B300004E0144A3C3A01E0124A383A12A1FDF787
:102B40003DFB0FA10020FDF717FB0028E6D10D4843
:102B50007838016C79B10169C1600020094A0146E9
:102B60001154401C0828FBDBBDE810400822054931
:102B70000248FFF79DBF4169EEE710BDF801002054
:102B80005700000080000020256400002DE9F84374
:102B9000044690F839001F4616460D4620284CD1B1
:102BA000C5B1BEB194F83800012846D0012084F8A0
:102BB00038004FF00008C4F83C80212084F8390028
:102BC000FEF76CFDA6848146E684A068B0F5805FC0
:102BD00003D004E00120BDE8F883206928B12E4627
:102BE0005FF0000584F838800EE00026FAE78021C7
:102BF000204600F06DFDA0B9AEB116F8010B2168BA
:102C00004860E08C401EE084E08C4B464FF00002B0
:102C100000970028EBD14FF04001204600F058FD0E
:102C200030B10320D7E735F8020BC0F30800E6E720
:102C3000202084F839000020CDE70220CBE7704740
:102C4000FEE701684A69D24352050FD46FF48062EF
:102C50004A61002140F8301F2022427381730269CB
:102C600042F00402026101730120704700207047A6
:102C7000F8B50446C06A1E460D461746082807D018
:102C8000012805D010F5803F02D0206B122804D116
:102C90002068016841F480710160134600224FF002
:102CA00001112046009600F057F840B120680068F6
:102CB000C00502D54FF4007020640320F8BD2069E0
:102CC000B0F5804F0ED00620216800EAD51040F004
:102CD000F000086133463A460B49204600F070F890
:102CE00078B902E005F0FE0000E0E8B22168086172
:102CF000054933463A46891F204600F061F800280E
:102D0000DCD00120F8BD00000800010070B51646B7
:102D10000D4604460DE02046FFF793FF08B1012061
:102D200070BD681C05D0FEF7B9FC801BA84207D80F
:102D300035B120684069C0434007ECD4002070BD25
:102D4000002044F8300F20216173A073216941F005
:102D5000200121612073E2E72DE9F0471E469046ED
:102D60000D460446C1F30747DDF8209008E0701CCB
:102D700006D0FEF793FCA0EB0900B0420FD876B165
:102D80002068012F18D0806925EA00000004000C9B
:102D900014D000214145EAD00020BDE8F087002092
:102DA00044F8300F20216173A073216941F02001A4
:102DB000216120730120F0E74069E5E70121E9E79F
:102DC0002DE9F0479A4691460E46044600254FF0FD
:102DD0002008C1F3074725E020684069C04340054B
:102DE00014D42068016841F40071016021686FF417
:102DF00080604861256384F83D8084F83E50206CF3
:102E000040F00400206484F83C501FE0B9F1FF3F1B
:102E100008D0FEF743FCA0EB0A0149450CD8B9F1F4
:102E2000000F09D02068012F13D0806926EA000026
:102E30000004000C0BD0CFE744F8305F84F80D801D
:102E4000A573206940F02000206125730120BDE8B2
:102E5000F0874069EAE770B516460D4604460DE076
:102E60002046FFF7EEFE08B1012070BD681C05D0BA
:102E7000FEF714FC801BA84207D835B120684069D2
:102E8000C0430006ECD4002070BD002044F8300F91
:102E900020216173A073216941F020012161207319
:102EA000E2E700003EB5002411480094019402942A
:102EB0000E498460016004730475012505614FF4B7
:102EC00060214460C161FEF7D5F808B172B6FEE733
:102ED0000220CDE90005694602940548FEF748F84E
:102EE000002801D072B6FEE73EBD0000002401407C
:102EF0009C00002000B585B000200290039015488A
:102F0000816941F004018161816901F0040104914A
:102F1000816941F0080181618069694600F008001B
:102F20000490032000900C4801900C48FEF7C0FA72
:102F3000002202210620FEF7A7FD0620FEF796FDDF
:102F4000002202210720FEF79FFD0720FEF78EFDDD
:102F500005B000BD00100240000011100008014043
:102F600010B596B000240F941094119412941394F9
:102F70001C2168461494FDF7ECF8202107A8FDF702
:102F8000E8F82C482A4901600721C0E9011440F201
:102F9000E731C0E9031444618461FFF771F908B1B6
:102FA00072B6FEE74FF480500F900FA92148FFF74B
:102FB00025FA08B172B6FEE71E48FFF7C9FB08B153
:102FC00072B6FEE7139413A91A481494FFF724F974
:102FD00008B172B6FEE76020CDE9000402940394C4
:102FE000049405940022694612480694FFF74DFBAD
:102FF00008B172B6FEE7042269460E48FFF745FBAA
:1030000008B172B6FEE70794089409944FF4005093
:103010000A94CDE90B4007A906480E94FFF7D2F8B1
:1030200008B172B6FEE70348FFF708FB16B010BD03
:10303000002C01402001002010B586B00024174864
:10304000009401940294039404944FF080410594F9
:1030500001600721C0E9011440F2E731C0E903141F
:1030600080218161FFF70CF908B172B6FEE74FF4D9
:103070008050009069460948FFF7C0F908B172B660
:10308000FEE7049404A905480594FFF7C5F8002855
:1030900001D072B6FEE706B010BD00006801002046
:1030A00010B586B00024174800940194029403944C
:1030B00004941349059401604F21C0E9011440F2C2
:1030C000E731C0E9031480218161FFF7D9F808B125
:1030D00072B6FEE74FF48050009069460948FFF74A
:1030E0008DF908B172B6FEE7049404A90548059469
:1030F000FFF792F8002801D072B6FEE706B010BDC7
:1031000000040040B0010020FEE7FEE72DE9F04F8B
:103110005E4C93B06068C0EB00108000FDF742FB8E
:10312000D4E9182316461F46FDF7ADFA0022584B86
:10313000FDF7A9FAFDF747FB0021C4E90110E1689A
:103140000A1AA2611292D4E914010122CDE90A01FE
:10315000FDF708FB814688460791D4E916013246FF
:103160003B46CDE90801FDF71CFA32463B46FDF728
:1031700018FACDE91001012230463946FDF7F2FA7E
:10318000D4E9122305468A46FDF70BFADDE9102340
:1031900083460591FDF75EF94A464346FDF75AF925
:1031A000FDF774FB20630C90DDE90A010222CDF8E3
:1031B00010B0FDF7D7FA80468B4632463B46304684
:1031C0003946FDF7EEF9DDE90823FDF7EAF9424655
:1031D0005B46FDF7E0F9DDE90423FDF7DCF9FDF7D7
:1031E00055FB6063834648460799FDF74FFBA06394
:1031F000D4E91C238146564628463146FDF7D1F9CD
:1032000007468846206AFDF7C4FA4946FDF7F0F8FC
:103210008146E0690790FDF7BCFA5946FDF7E8F8EA
:1032200082461298FDF7B5FA0C99FDF7E1F8514680
:10323000FDF786F84946FDF783F8FDF7E3FA3A46CD
:103240004346FDF707F92A463346FDF71CFAC4E961
:103250001A01C4E91C01079A2262129AE261002253
:103260001346FDF7E3FA02D80020014608E0D4E94E
:103270001A010022074BFDF7F1FA03D2064900209C
:10328000C4E91A0113B0BDE8F08F00000800002067
:1032900000E0744000408F4000388F407047704716
:1032A000FEF794BB30B593B028216846FCF751FF78
:1032B00014210AA8FCF74DFF002401200F940225D9
:1032C0000490009510201194059010941294079486
:1032D0006846FEF7D1FD08B172B6FEE70F20CDE9D2
:1032E0000A040C940D9400210AA80E94FEF7D8FC51
:1032F00008B172B6FEE70FA80F951194FEF75AFCBD
:10330000002801D072B6FEE713B030BD7047000050
:103310000148FFF7DFB80000680100200148FFF70F
:10332000D9B80000B0010020F0B50268164B174C68
:10333000174D4FF08047984205D0B84203D0A042C5
:1033400001D0A84203D122F070064A683243984265
:1033500005D0B84203D0A04201D0A84203D122F444
:103360004074CA6822434C6922F080022243026002
:103370008A68C2620A688262984201D1096901635F
:1033800001214161F0BD0000002C0140000400401B
:103390000008004010B501F01F030121046A9940A4
:1033A0008C430462016A9A401143016210BD10B55A
:1033B000846842EA032224F47F440A432243826061
:1033C00010BD826822F070020A4342F0070181605A
:1033D0007047000030B5026A22F001020262026A00
:1033E0004368846924F073050C682C4322F00205BD
:1033F0008A682A430A4DA8420BD122F00805CA6800
:1034000023F440732A434D6922F004021D438B6963
:103410002B434360846149684163026230BD000010
:10342000002C014030B5026A22F010020262026AEA
:10343000436884690D6824F4E64444EA05248D68F1
:1034400022F0200242EA05120B4DA8420ED1CD68AF
:1034500022F0800242EA05124D6923F4406343EAF8
:1034600085038D6922F0400243EA8503436084614D
:1034700049688163026230BD002C014030B5026AA8
:1034800022F480720262036A4268C46923F4007302
:1034900024F073050C682C438D6843EA05230C4D1A
:1034A000A8420ED1CD6823F4006343EA05234D6999
:1034B00022F4405242EA05128D6923F4806342EA05
:1034C00005124260C4614968C163036230BD0000F7
:1034D000002C014030B5026A22F480520262046A74
:1034E0004268C3690D6823F4E64343EA05238D6807
:1034F00024F4005444EA0534064DA84204D14D6931
:1035000022F4804242EA85124260C3614968016444
:10351000046230BD002C014010B5036A046A24F037
:1035200001040462846924F0F00444EA021423F0E4
:103530000A020A438461026210BD10B5036A23F0D7
:10354000100303628369046A23F4704343EA02327E
:1035500024F0A00343EA01118261016210BD10B59D
:10356000406A0021C185C184FFF778F910BD016868
:10357000CA6822F49072CA6001684A6922F00102A6
:103580004A61202180F83A10704710B590F83A103F
:10359000222901D0022010BD82684FF480539A4244
:1035A00001D1016921B1816A9A421BD04AB10AE076
:1035B0000268816A5268C2F308020A80816A891C23
:1035C00008E0026972B10268526802F07F020A7074
:1035D000816A491C8162C18D491E0904090CC1859B
:1035E00003D016E002685268F1E70168CA6822F069
:1035F0002002CA600168CA6822F48072CA60016849
:103600004A6922F001024A61202180F83A10FFF74E
:1036100079FA002010BD000070B504460068016909
:10362000E26821F44051114301612169A068084317
:10363000616908432168CA6841F20C639A430243F6
:10364000CA6020684169A26921F440711143416157
:103650001E492068884202D1FEF7C8FB01E0FEF750
:10366000B5FB00EBC00101EB001260686421800033
:10367000B2FBF0F3B3FBF1F36FF018067343B2FB48
:10368000F0F5B2FBF0F605EB8305322303EB0515ED
:10369000B5FBF1F5B6FBF1F605F0F00505EB061507
:1036A000B2FBF0F6B2FBF0F0B0FBF1F06FF01802F5
:1036B000504306EB800003EB0010B0FBF1F02168F3
:1036C00000F00F002844886070BD00000038014001
:1036D0002DE9F041984617460E460446069D1DE02A
:1036E000681C1BD02DB1FDF7D9FFA0EB0800A84244
:1036F00014D92068C16821F4D071C1602068416983
:1037000021F001014161202084F8390084F83A0059
:10371000002084F838000320BDE8F08120680068AC
:1037200036EA000004D00020B842D9D00020F3E7E8
:103730000120F9E70148FFF793B80000F8010020E5
:10374000FEE700000FB4084B10B504A902AA0398C5
:1037500000F02CF8044602A9002000F003F92046EE
:1037600010BC5DF814FB0000653900080907090E5C
:10377000002804DB00F1E02080F80014704700F01E
:103780000F0000F1E02080F8141D704702E008C827
:10379000121F08C1002AFAD170477047002001E0CB
:1037A00001C1121F002AFBD1704700002DE9FF4F15
:1037B0008BB09A460F460546002606E025280BD01A
:1037C00052460D9990476D1C761C28780028F5D13B
:1037D0000FB03046BDE8F08F0024A04601226049BA
:1037E00000E0044315F8013F203B02FA03F00842D1
:1037F000F7D128782E2817D115F8010F44F00404CA
:103800002A280ED06FF02F022878A0F13001092964
:103810000AD808EB880102EB410100EB01086D1C9E
:10382000F2E757F8048B6D1C287869283ED006DC37
:103830000028CDD063280BD0642804D136E073284B
:1038400010D075284BD052460D999047761C85E0D4
:1038500017F8040B8DF8000000208DF80100E946F0
:10386000012003E057F8049B4FF0FF3061074FF051
:10387000000401D40AE0641C44450DDA8442FADBFA
:1038800019F804100029F6D106E0641C8442FCDB20
:1038900019F804100029F8D1264404E019F8010BA6
:1038A00052460D999047641EF8D257E001CF4FF071
:1038B0000A0B002802DA40422D2102E0210504D53E
:1038C0002B218DF82410012103E0E10705D02021F0
:1038D000F7E70DF1200908910CE00021F9E701CF8D
:1038E0004FF00A0BF9E75946FCF7ECFF01F1300203
:1038F00009F8012D0028F6D1ADEB090000F1200BED
:10390000600701D44FF00108D84502DDA8EB0B0099
:1039100000E000208046002406E009A85246005D31
:103920000D999047641C761C08988442F5DB04E0EE
:10393000302052460D999047761CB8F10001A8F14D
:103940000108F5DC05E019F8010B52460D99904786
:10395000761CBBF10001ABF1010BF4DC6D1C34E70C
:10396000092801000A68531C0B60107070470000A2
:1039700010B50446C820FDF77BFD0348002102680E
:1039800091630068446310BD20010020012805D028
:103990004031C8B240F0800000F030B88031C8B289
:1039A000FAE710B5332000F029F8322000F026F8AD
:1039B0003220FDF75DFD282000F020F83220FDF7D1
:1039C00057FD012000F01AF83220FDF751FD0620C6
:1039D00000F014F83220FDF74BFD0C2000F00EF83B
:1039E0003220FDF745FD022000F008F83220FDF7F7
:1039F0003FFDBDE810408020AFF300801CB500F013
:103A0000F00141F00C028DF8042041F008010001A2
:103A10008DF8051040F00C018DF8061040F00800FC
:103A20008DF8070064200090042301AA4E2102486B
:103A3000FDF7FEFE1CBD0000CC0000201CB500F010
:103A4000F00141F00D028DF8042041F00901000160
:103A50008DF8051040F00D018DF8061040F00900BA
:103A60008DF8070064200090042301AA4E2102482B
:103A7000FDF7DEFE1CBD0000CC00002010B50446A2
:103A800002E0641CFFF7DAFF20780028F9D110BDAE
:103A900098B0FDF7A3FFFFF705FCFFF72BFA584896
:103AA0005649002401605749C0E901144FF4804190
:103AB000C0E9034144618461C4610462FDF7F4FD1F
:103AC00008B172B6FEE7FFF74BFAFFF7EBF94F4884
:103AD0004D4901604FF41651C0E901140C21C46036
:103AE000C0E904418461C461FEF768FF08B172B6A1
:103AF000FEE7FFF7A1FAFFF7D3FAFFF752FF4048BE
:103B00005430FEF727FC3E4800215430FEF750FEAB
:103B10003B4804215430FEF74BFE3C489038FEF7FA
:103B200041FC3B4C40F6FF7535483038FDF7F4FB5F
:103B30003348C8213038FDF757FB31483038FDF79E
:103B400095FA40F63111E062484390FBF5F02061B0
:103B5000216C01B1E0602FA112A8A268FFF7F2FD6D
:103B60002FA10DA8E268FFF7EDFD0DA8FCF7FCFA08
:103B7000606212A8FCF7F8FAA0620120616AFFF700
:103B800005FF29A0FFF77AFF00210120FFF7FEFEC5
:103B90000DA8FFF773FF0020A16AFFF7F7FE22A030
:103BA000FFF76CFF00210846FFF7F0FE12A8FFF7B1
:103BB00065FF1749082278311448FEF779FF144B46
:103BC0001BA16846A268FFF7BDFD6846FCF7CCFA6A
:103BD00082B2C82369460D48FEF7D8FFE06B002883
:103BE000D4E91A0104D0FCF7EEFD00F027F89BE7BA
:103BF000FCF7E9FDFFF7BCFE96E70000005400402B
:103C0000CC000020A086010000380140F80100200F
:103C10000800002053706565643A202564000000A8
:103C20005365743A202564002020202020000000E5
:103C3000412564422573430A0000000010B5044684
:103C4000C820FDF715FC0348002102685163006895
:103C5000846310BD2001002000000000000000006F
:103C60000102030406070809000000000102030422
:103C7000DDDDDDDDDCBBBBDDDDDDDDDDDDDDDDDDB9
:103C800098888888888888887777777777888888F9
:103C90008555555666666666666666666668888891
:103CA0008333333222222222222222222228888D8A
:103CB000D03C0008000000209C0000008C37000869
:103CC0006C3D00089C0000209C0500009C3700080B
:103CD0000000000000000000540000000000000090
:103CE00000000000000000000000000000000000D4
:103CF00000000000000000000000000000000000C4
:103D000000000000000000000000000000000000B3
:103D100000000000000000000000000000000000A3
:103D20009A9999999999B93F48AFBC9AF2D77A3E36
:103D3000333333333333D33FFCA9F1D24D62503F99
:103D40000000000000000000000000000000000073
:103D50000000000000000000010000001000000052
:0C3D6000000000000024F400000000003F
:04000005080000ED02
:00000001FF
